:040000008231782AA7
:1000060008007E1480314E010C1C0A280B28632838
:1000160009307D011006031D1128122863284E01A0
:100026000C1008307D01900092312A2280319031E7
:100036007C2080310230F200013091313F21803145
:100046002D30F2009830F3009131EA2180314E01D3
:100056000C1C2E282F285F280C1009307D019000DB
:100066009431062480319031FE2080310330F20035
:10007600013091313F21803141015908803A4001D8
:10008600CE008B304E02031D4B28B830410158027A
:1000960003184E284F2857286530F2009830F30091
:1000A6009131EA21803163285830F2009830F3000C
:1000B6009131EA218031632891317C2180312A28CF
:1000C6007E014A1E6728682897284E010C127E0179
:1000D6004A129031F020803140010D1E7328742899
:1000E600842844010E14F201F20A023091313F21B4
:1000F60080311C30F2009830F3009131EA218031D2
:1001060097280D1A8728882897280230F20002308F
:1001160091313F21803144010E103C30F20098307D
:10012600F3009131EA2180314E018C1E9B289C28D8
:10013600A5288C12483040019D00E5309C00913185
:10014600532180314E01101CA928AA28022901300A
:100156004001DB070030DC3D0D1DB228B328D22854
:1001660002305B065C04031DB928BA28D228053084
:10017600F200023091313F2180317530F200983023
:10018600F3009131EA21803101304001E907003066
:10019600EA3DDB01DC0192314C228031FB280D194E
:1001A600D528D628EB2804305B065C04031DDC2822
:1001B600DD28EB280530F200023091313F218031F5
:1001C6007730F2009830F3009131EA218031C72868
:1001D6005C08803ACE0080304E02031DF4280530BC
:1001E6005B02031CF728F828FB284001DB01DC0131
:1001F6004E011010243044018D0046308C004E0113
:10020600901C06290729F829400157085804031DA0
:100216000D290E292F290A30F0000030F100410186
:100226005908F3005808F2008831F6208031710829
:100236004001E8007008E7008C120C1200306707D6
:1002460084001830683D8038850000088E00013033
:10025600D7070030D83DF62957035804031D342923
:10026600352976290A30F7000030F800410159088F
:10027600F3005808F2006430F0000030F1008831D5
:10028600F62080317108FA007008F9008931492199
:10029600803178084001E6007708E5008C120C16DC
:1002A60041015908803A4001CE0080304E02031DBC
:1002B6005F290A30410158020318622963296B2914
:1002C6000A30840098308500000840018E002A29F3
:1002D60000304001650784001830663D803885008F
:1002E60000088E002A29023057065804031D7C296F
:1002F6007D29B7296430F7000030F800410159081C
:10030600F3005808F200E830F0000330F1008831BD
:10031600F62080317108FA007008F9008931492108
:10032600803178084001E4007708E3008C160C124F
:1003360041015908803A4001CE0080304E02031D2B
:10034600A7296430410158020318AA29AB29AC2910
:10035600632900304001630784001830643D80380B
:10036600850000088E002A29033057065804031D0D
:10037600BD29BE29F629E830F7000330F80041010F
:100386005908FA005808F90089314921803178085E
:100396004001E2007708E1008C160C16410159086D
:1003A600803A4001CE0083304E02031DDD29E8303D
:1003B600410158020318E029E129E9290A3084009D
:1003C60098308500000840018E00F3290030400176
:1003D600610784001830623D8038850000088E0071
:1003E600D701D801F6294E019010101DFB29FC29D2
:1003F600132A10110B3044019900DC3098000130AB
:100406004001D9070030DA3D0A3059065A04031D67
:100416000D2A0E2A132A440114104001D901DA01CB
:100426004E01901D172A182A1E2A9011FF304101ED
:10043600D807FF30D93D4E01101E222A232A762ADC
:10044600101240015F036004031D2A2A2B2A492A41
:100456000B3044019300DC309200031040018C1DE8
:1004660003140318372A3A2A40018C153C2A400106
:100476008C110C1103108C1C03140318432A462AF2
:1004860040018C14482A40018C10762A5D035E04D4
:10049600031D4E2A4F2A762A0B3044019300DC3086
:1004A6009200031040018C1D031403185B2A5E2A78
:1004B60040018C15602A40018C1103100C1D031499
:1004C6000318662A692A40010C156B2A40010C1193
:1004D60003108C1C03140318712A742A40018C140F
:1004E600762A40018C107E10090082317A2A4F301C
:1004F6008400003085001D30903186208231410114
:10050600D801D90120308400013085002030903197
:10051600862082317E1040019431812C41012C08C5
:100526008039B6002C35BC00AB1F9A2A9B2A9C2A20
:100536003C143C080319A02AA12AB02A3C0A031D30
:10054600A52AA62AAE2A0030AC000030AB00003047
:10055600AA000030A900AB17B82A0030AC00003062
:10056600AB000030AA000030A90030088039B10085
:100576003108B6063035BB00AF1FC22AC32AC42ACB
:100586003B143B080319C82AC92AD82A3B0A031D6B
:10059600CD2ACE2AD62A0030B0000030AF00003077
:1005A600AE000030AD00AF17E02A0030B0000030DA
:1005B600AF000030AE000030AD003B080319E42A5E
:1005C600E52AEA2A3C08031DE92AEA2AF32A00302A
:1005D600AC000030AB000030AA000030A900CB2CE4
:1005E6002908A0002F089231922282314101210868
:1005F600C2002008C1004108B100B201B301B40134
:100606003408BA003308B9003208B8003108B70018
:100616004208B100B201B301B4013408C000330886
:10062600BF003208BE003108BD002A08A0002E080F
:1006360092319222823141012108C2002008C10074
:100646004108B100B201B301B4013108B70732085D
:10065600B83D3308B93D3408BA3D4208B100B2018D
:10066600B301B4013108BD073208BE3D3308BF3DB2
:100676003408C03D2B08A0002D0892319222823109
:1006860041012108C2002008C1004108B100B201A1
:10069600B301B4013108B7073208B83D3308B93D94
:1006A6003408BA3D4208B100B201B301B4013108C1
:1006B600BD073208BE3D3308BF3D3408C03D083093
:1006C600B735B80DB90DBA0D890B632B2A08A000F2
:1006D6002D0892319222823141012108C200200860
:1006E600C1004108B7074208B83D0030B93DBA3DE0
:1006F6002908A0002E089231922282314101210858
:10070600C2002008C1004108B7074208B83D0030C2
:10071600B93DBA3D0830B735B80DB90DBA0D890BDC
:100726008E2B2908A0002D08923192228231410198
:100736002108C2002008C1004108B7074208B83D99
:100746000030B93DBA3D2A08A0002F089231922206
:10075600823141012108C2002008C1004108BD07BD
:100766004208BE3D0030BF3DC03D2B08A0002E080C
:1007760092319222823141012108C2002008C10033
:100786004108BD074208BE3D0030BF3DC03D2B08B5
:10079600A0002F0892319222823141012108C20025
:1007A6002008C1004108B1004208B200B301B401FB
:1007B6000830B135B20DB30DB40D890BDC2B310801
:1007C600BD073208BE3D3308BF3D3408C03D37087B
:1007D600B1003808B2003908B3003A08B40018303E
:1007E600B436B30CB20CB10C890BF32B3108BD0730
:1007F6003208BE3D3308BF3D3408C03D0830B7352A
:10080600B80DB90DBA0D890B022C3C083B07B10097
:10081600B201B20D3108823EC100FF30323DC20046
:100826002B2C0130BD35BE0DBF0DC00D890B152C0F
:10083600BA1F1E2C1F2C202C3D140130B735B80DC5
:10084600B90DBA0D890B212CFF30C107FF30C23D0F
:10085600BF1F2E2C2F2C142CBB01BA1F332C342C6B
:10086600502CFF303705B100FF303805B200FF309D
:100876003905B3007F303A05B40034083304320436
:1008860031040319472C482C4B2CBB01BB0A502CB6
:100896003D1C4E2C4F2C502C482C3B080319542C35
:1008A600552C7D2C0130BD070030BE3D0030BF3DCC
:1008B6000030C03D401C602C612C7D2C3D08B100F1
:1008C6003E08B2003F08B3004008B4000130B5004E
:1008D600B437B30CB20CB10CB50B6B2C3408C0009A
:1008E6003308BF003208BE003108BD000130C10721
:1008F6000030C23D4208803AB10080303102031D0B
:10090600862CFF304102031C892C8A2C942C7F30C4
:100916004101C0008030BF000030BE000030BD0085
:10092600BF2C41014208803AB10080303102031DDC
:100936009E2C013041020318A12CA22CAD2C0030B4
:100946004101C0000030BF000030BE000030BD00D5
:10095600B601BF2C41014108BC00FF30BD05FF3088
:10096600BE057F30BF050030C0053C1CBB2CBC2C2F
:10097600BD2CBF173C36C0003608B1003108C00494
:100986004008AC003F08AB003E08AA003D08A9009D
:100996000800400123088039A8002335AE00A21FB5
:1009A600D52CD62CD72C2E142E080319DB2CDC2C98
:1009B600EB2C2E0A031DE02CE12CE92C0030A300C1
:1009C6000030A2000030A1000030A000A217F32CD6
:1009D6000030A3000030A2000030A1000030A000CB
:1009E60027088039F9007908A8062735AD00A61F23
:1009F600FD2CFE2CFF2C2D142D080319032D042D80
:100A0600132D2D0A031D082D092D112D0030A700C9
:100A16000030A6000030A5000030A400A6171B2D4C
:100A26000030A7000030A6000030A5000030A4006A
:100A36002D0803191F2D202D252D2E08031D242DCD
:100A4600252D2E2D0030A3000030A2000030A1007D
:100A56000030A000062F2008F000260892316F22F1
:100A6600843171084001B4007008B3003308F900FE
:100A7600FA01FB01FC017C08AC007B08AB007A089C
:100A8600AA007908A9003408F900FA01FB01FC0163
:100A96007C08B2007B08B1007A08B0007908AF0084
:100AA6002108F000250892316F2284317108400137
:100AB600B4007008B3003308F900FA01FB01FC0129
:100AC6007908A9077A08AA3D7B08AB3D7C08AC3DAE
:100AD6003408F900FA01FB01FC017908AF077A082E
:100AE600B03D7B08B13D7C08B23D2208F0002408E9
:100AF60092316F22843171084001B4007008B3004E
:100B06003308F900FA01FB01FC017908A9077A0804
:100B1600AA3D7B08AB3D7C08AC3D3408F900FA01E0
:100B2600FB01FC017908AF077A08B03D7B08B13DAF
:100B36007C08B23D0830A935AA0DAB0DAC0D890B6A
:100B46009E2D2108F000240892316F22843171080D
:100B56004001B4007008B3003308A9073408AA3D61
:100B66000030AB3DAC3D2008F000250892316F22E5
:100B7600843171084001B4007008B3003308A90736
:100B86003408AA3D0030AB3DAC3D0830A935AA0D6E
:100B9600AB0DAC0D890BC92D2008F000240892314D
:100BA6006F22843171084001B4007008B300330825
:100BB600A9073408AA3D0030AB3DAC3D2108F00042
:100BC600260892316F22843171084001B400700802
:100BD600B3003308AF073408B03D0030B13DB23D35
:100BE6002208F000250892316F22843171084001F5
:100BF600B4007008B3003308AF073408B03D0030C6
:100C0600B13DB23D2208F000260892316F228431B0
:100C160071084001B4007008B3003308F9003408C5
:100C2600FA00FB01FC010830F935FA0DFB0DFC0D4D
:100C3600890B172E7908AF077A08B03D7B08B13DBE
:100C46007C08B23D2908F9002A08FA002B08FB00A7
:100C56002C08FC001830FC36FB0CFA0CF90C890B3E
:100C66002E2E7908AF077A08B03D7B08B13D7C0887
:100C7600B23D0830A935AA0DAB0DAC0D890B3D2E42
:100C86002E082D07F900FA01FA0D7908823EB30005
:100C9600FF307A3DB400662E0130AF35B00DB10D90
:100CA600B20D890B502EAC1F592E5A2E5B2E2F14C7
:100CB6000130A935AA0DAB0DAC0D890B5C2EFF30AA
:100CC600B307FF30B43DB11F692E6A2E4F2EAD011A
:100CD600AC1F6E2E6F2E8B2EFF302905F900FF30CC
:100CE6002A05FA00FF302B05FB007F302C05FC009F
:100CF6007C087B047A0479040319822E832E862EBF
:100D0600AD01AD0A8B2E2F1C892E8A2E8B2E832E9B
:100D16002D0803198F2E902EB82E0130AF07003004
:100D2600B03D0030B13D0030B23D321C9B2E9C2EB2
:100D3600B82E2F08F9003008FA003108FB003208F7
:100D4600FC000130FD00FC37FB0CFA0CF90CFD0B26
:100D5600A62E7C08B2007B08B1007A08B00079089C
:100D6600AF000130B3070030B43D3408803AF900D3
:100D760080307902031DC12EFF303302031CC42EBE
:100D8600C52ECF2E7F304001B2008030B10000303A
:100D9600B0000030AF00FA2E40013408803AF90066
:100DA60080307902031DD92E013033020318DC2E60
:100DB600DD2EE82E00304001B2000030B1000030D8
:100DC600B0000030AF00A801FA2E40013308AE0093
:100DD600FF30AF05FF30B0057F30B1050030B205FA
:100DE6002E1CF62EF72EF82EB1172E36B200280836
:100DF600F9007908B2043208A3003108A2003008CD
:100E0600A1002F08A00008004001A9007C08860068
:100E16008701403FA400413FA5002408840025081F
:100E260085001200253A031D192F1A2FDC2F7C0886
:100E3600860087010130810741310318810AD301F9
:100E4600D4010310003003180130EB00FF30D50049
:100E5600FF30D6007C0886008701403FAA00413F4C
:100E6600AB002A0884002B0885001200643A031997
:100E76003D2F3E2F482F2A0884002B08850012009C
:100E8600693A031D472F482FD32F7D088600870117
:100E960001088400850102308107003FAC00013F54
:100EA600AD002A08013EA40000302B3DA5007C08B9
:100EB600860087012408C03F2508C13F2030B000C6
:100EC600AD1B662F682F0130692F0030A800013056
:100ED600B0023008203E8600013087000A30F0005C
:100EE6000030F1002D08F3002C08F2008831F620BE
:100EF60087317108F8007008F70091311C2187319D
:100F06007708303E81000A30F7000030F8004001D3
:100F16002D08FA002C08F900893149218731780813
:100F26004001AD007708AC002C082D0403199C2F56
:100F36009D2FA22F3008031DA12FA22F6A2F300844
:100F46000319A62FA72FCC2F28080319AB2FAC2FD8
:100F5600CC2F0130B0023008203E860001308700D9
:100F66002D308100CC2F3008203E860001308700CE
:100F76000108A400A5012408F0002508F1002908AD
:100F8600F20096317026873101304001A400240812
:100F9600B00720303006031DD12FD22FB62FF42FE5
:100FA6007C08860087010130810741310318810AD8
:100FB600F42F7C0886008701403FA400413FA5002E
:100FC60024088400250885000008A600A701260835
:100FD600F0002708F1002908F200963170268731C3
:100FE600D32F080044011A1401304001DF000030FD
:0A0FF600E0008C150C118C140800AB
:1010080041015008A7004F08A6004E08A5004D084A
:10101800A4003B30A300FC30A2005030A1004830AF
:10102800A0008E315626883141012308C6002208C7
:10103800C5002108C4002008C3008A3189228831EC
:1010480041014408D3004308D200D401D501452802
:1010580040018D1505304101D100FF30890B322840
:10106800D10B322840018D1105304101D100FF30EC
:10107800890B3C28D10B3C2801304101D4070030B2
:10108800D53D5508803AD1005308803A5102031DD6
:101098004F2852085402031C522853282C280800B1
:1010A80041015008A7004F08A6004E08A5004D08AA
:1010B800A4003B30A3005E30A200D230A1008930EA
:1010C800A0008E315626883141012308C600220827
:1010D800C5002108C4002008C3008A31892288314C
:1010E80041014408D3004308D200D401D501952812
:1010F80040018D15F23000320032890B7F28003212
:101108000032003240018D11F23000320032890B7A
:10111800892800320032003201304101D407003002
:10112800D53D5508803AD1005308803A5102031D35
:101138009F2852085402031CA228A3287C280800D0
:1011480041015008A7004F08A6004E08A5004D0809
:10115800A4003B30A3008630A2005930A1004B30D8
:10116800A0008E315626883141012308C600220886
:10117800C5002108C4002008C3008A3189228831AB
:1011880041014408D3004308D200D401D501E7281F
:1011980040018D1503304101D100A830890BD228B8
:1011A800D10BD228000040018D1103304101D1003C
:1011B800A830890BDD28D10BDD2800000130410162
:1011C800D4070030D53D5508803AD1005308803AFD
:1011D8005102031DF12852085402031CF428F52873
:1011E800CC280800F601F31FFA28FB280229F20987
:1011F800F309F20A0319F30AF601F60AF11F0529A1
:1012080006290B29F009F109F00A0319F10A7008F7
:1012180071040319102911293A29F501F50A1D2924
:101228000130F035F10D890B15290130F4007408EF
:10123800F507F11F20292129142971087302031DBC
:10124800272970087202031C2A292B292F297008C4
:10125800F2027108F33B0130F136F00C890B3029AA
:101268000130F502031D39293A2921297608031985
:101278003E293F294429F209F309F20A0319F30A1E
:101288007308F1007208F00008004001A101F81F7E
:101298004E294F295629F709F809F70A0319F80AB8
:1012A800A101A10AFA1F59295A296329F909FA093A
:1012B800F90A0319FA0A0130FB007B08A106A2010A
:1012C800A3017708780403196A296B299A29A001D0
:1012D800A00A77290130F735F80D890B6F290130FD
:1012E800FB007B08A007F81F7A297B296E290130AB
:1012F800A235A30D890B7C2978087A02031D86295B
:1013080077087902031C89298A298F297708F90225
:101318007808FA3B22140130F836F70C890B90292B
:101328000130A002031D99299A297B292108031954
:101338009E299F29A429A209A309A20A0319A30A7D
:101348002308F8002208F700080005304101A20030
:10135800023091316721893140010D1EB429B52928
:10136800CE290D1DB829B929C22975304101A2001D
:101378009830A300923109228931CE290D19C52947
:10138800C629CE2977304101A2009830A3009231B6
:101398000922893191310C21893103304101A200A0
:1013A80001309131672189314B304101A2009830D9
:1013B800A30092310922893141015908803AA700D6
:1013C8008D302702031DEA29AC305802031CED2991
:1013D800EE29EF29172A40010D1EF329F4290E2AB8
:1013E8000D19F729F829012AD6304101A500063040
:1013F800A600933136238931E0290D1D042A052AD8
:10140800162A52304101A5000330A6009331362335
:101418008931E0290D1A112A122AE02990318120F8
:101428008931E029E029080003104001370D380D03
:10143800BE003E08031D212A222A2B2A0030B800AC
:101448000030B7000030B6000030B500882A3508F3
:10145800B9003608BA003708BB003808BC001F308E
:10146800BC36BB0CBA0CB90C890B342A3908BD0040
:10147800B717FF30B505FF30B605FF30B7050030A8
:10148800B8059630BE02BE1F4A2A4B2A632A3E0878
:10149800803A973E0318512A522A532A222A0130A9
:1014A800B836B70CB60CB50C890B542A0130B90004
:1014B8003908BE07031D612A622A532A782A203078
:1014C8003E02031C682A692A732A222A0130B5358C
:1014D800B60DB70DB80D890B6B2A0130BE023E0858
:1014E800031D772A782A6A2A3D0803197C2A7D2A4F
:1014F800882AB509B609B709B809B50A0319B60A99
:101508000319B70A0319B80A080003104101450D69
:10151800460DCC004C08031D922A932A9C2A0030C1
:10152800C6000030C5000030C4000030C300F92AEE
:101538004308C7004408C8004508C9004608CA004F
:101548001F30CA36C90CC80CC70C890BA52A470816
:10155800CB00C517FF30C305FF30C405FF30C505F4
:101568000030C6059630CC02CC1FBB2ABC2AD42A30
:101578004C08803A973E0318C22AC32AC42A932AE1
:101588000130C636C50CC40CC30C890BC52A013002
:10159800C7004708CC07031DD22AD32AC42AE92A40
:1015A80020304C02031CD92ADA2AE42A932A013073
:1015B800C335C40DC50DC60D890BDC2A0130CC021C
:1015C8004C08031DE82AE92ADB2A4B080319ED2AEF
:1015D800EE2AF92AC309C409C509C609C30A0319A9
:1015E800C40A0319C50A0319C60A08003E30410196
:1015F800D0004C30CF00CC30CE00CD30CD0095316E
:1016080090258A313E304101D000BD30CF00703086
:10161800CE00A430CD009531D8258A313D30410126
:10162800D000E530CF006030CE004230CD00973199
:1016380060278A313E304101D0008030CF00003031
:10164800CE000030CD00973110278A313F3041015C
:10165800D0000030CF000030CE000030CD009531F2
:10166800D8258A313E304101D0008030CF0000308B
:10167800CE000030CD00953190258A313F304101B0
:10168800D0004030CF000030CE000030CD00953182
:1016980048258A313F304101D0004030CF0000302A
:1016A800CE000030CD00973110278A313E304101FD
:1016B800D0008030CF000030CE000030CD00953112
:1016C800D8258A313E304101D0001930CF009930F9
:1016D800CE009A30CD00973160278A313E304101E3
:1016E800D0008030CF000030CE000030CD009731E0
:1016F80010278A313E304101D000BD30CF00703014
:10170800CE00A430CD009531D8258A313E30410134
:10171800D0008030CF000030CE000030CD009731AF
:1017280010278A313F304101D0003D30CF00703062
:10173800CE00A430CD008831A4208A3108003E3084
:101748004101D0006630CF006630CE006630CD0053
:10175800953148258B313D304101D000CC30CF0048
:10176800CC30CE00CD30CD009731B0278B313E3014
:101778004101D0009930CF009930CE009A30CD0089
:10178800883154208B313E304101D0004C30CF009D
:10179800CC30CE00CD30CD009431C0248B313E30DA
:1017A8004101D0006630CF006630CE006630CD00F3
:1017B800883154208B313E304101D0004C30CF006D
:1017C800CC30CE00CD30CD009431C0248B313E30AA
:1017D8004101D0000230CF000C30CE004A30CD009D
:1017E800883154208B313E304101D0006630CF0023
:1017F8006630CE006630CD009531D8258B313E302D
:101808004101D0009930CF009930CE009A30CD00F8
:10181800963124268B313E304101D0004C30CF0028
:10182800CC30CE00CD30CD009431C0248B313E3049
:101838004101D0006630CF006630CE006630CD0062
:10184800963124268B313E304101D0004C30CF00F8
:10185800CC30CE00CD30CD009431C0248B313E3019
:101868004101D0001930CF009930CE009A30CD0018
:10187800963124268B313E304101D0006630CF00AE
:101888006630CE006630CD00973160278B313E3010
:101898004101D0006630CF006630CE006630CD0002
:1018A8009531D8258B313E304101D0004C30CF00E6
:1018B800CC30CE00CD30CD009431C0248B313E30B9
:1018C8004101D0009930CF009930CE009A30CD0038
:1018D8009531D8258B313E304101D0001930CF00E9
:1018E8009930CE009A30CD00883154208B313D306C
:1018F8004101D000CC30CF00CC30CE00CD30CD006F
:10190800883104208B313D304101D0004C30CF006C
:10191800CC30CE00CD30CD009431C0248B313D3059
:101928004101D000CC30CF00CC30CE00CD30CD003E
:10193800883104208B313D304101D0004C30CF003C
:10194800CC30CE00CD30CD00883154208B3108000A
:10195800770880394001A4007735AB00F61FB52C15
:10196800B62CB72C2B142B080319BB2CBC2CCC2C55
:101978002B0A031DC02CC12CC92C0030F7000030E5
:10198800F6000030F5000030F400F617F701D42C0B
:101998000030F7000030F6000030F5000030F400A9
:1019A80073088039F8007808A4067335AC00F21F74
:1019B800DE2CDF2CE02C2C142C080319E42CE52C4D
:1019C800F52C2C0A031DE92CEA2CF22C0030F3002C
:1019D8000030F2000030F1000030F000F217F3019F
:1019E800FD2C0030F3000030F2000030F100003030
:1019F800F0007308720471047004031D042D052D92
:101A08001E2D0030F7000030F6000030F5000030E1
:101A1800F4008030F6047F30F7042408F8007808D2
:101A2800F7047708F3007608F2007508F1007408E7
:101A3800F000552E2B08031D222D232D2C2D0030B0
:101A4800F3000030F2000030F1000030F000552EB5
:101A58002B08F800F9017908FB002C087802FA0035
:101A6800031CFB037A087F3EA50000307B3DA600DF
:101A78007708A3007608A2007508A1007408A000E2
:101A88000030F7000030F6000030F5000030F400B8
:101A98000030AA000030A9000030A8000030A700DC
:101AA800AC01942D2C0803195A2D5B2D752D01308E
:101AB800A035A10DA20DA30D890B5C2D0130F435C5
:101AC800F50DF60DF70D890B632DAA1F6C2D6D2DE5
:101AD8006E2D74140130A735A80DA90DAA0D890B18
:101AE8006F2D73082302031D832D72082202031D24
:101AF800832D71082102031D832D70082002031C09
:101B0800862D872D902D2A177008A0027108A13BF9
:101B18007208A23B7308A33B0130F8007808AC07B1
:101B28001A302C02031C992D9A2D562D23082204B5
:101B3800210420040319A12DA22DBB2D2714BB2D90
:101B48000130F435F50DF60DF70D890BA52DAA1FFB
:101B5800AE2DAF2DB02D74140130A735A80DA90DE9
:101B6800AA0D890BB12DFF30A507FF30A63DF61F42
:101B7800BE2DBF2DA42DAC01AA1FC32DC42DE02D51
:101B8800FF302705F800FF302805F900FF30290548
:101B9800FA007F302A05FB007B087A047904780470
:101BA8000319D72DD82DDB2DAC01AC0AE02D741C00
:101BB800DE2DDF2DE02DD82D2C080319E42DE52D81
:101BC8000D2E0130F4070030F53D0030F63D0030B1
:101BD800F73D771CF02DF12D0D2E7408F8007508CF
:101BE800F9007608FA007708FB000130FC00FB37A3
:101BF800FA0CF90CF80CFC0BFB2D7B08F7007A08A3
:101C0800F6007908F5007808F4000130A5070030DF
:101C1800A63D2608803AF80080307802031D162E6B
:101C2800FF302502031C192E1A2E272EFF304001E3
:101C3800A5000030A6000030F7000030F6000030A4
:101C4800F5000030F40040012608803AF8008030A2
:101C58007802031D312E013025020318342E352E4B
:101C6800412E4001A501A6010030F7000030F60022
:101C78000030F5000030F400A40140012508AB0055
:101C88002B1C472E482E4A2EF6174E2E7F30F80072
:101C98007808F6052B36F7002408F8007808F704CA
:101CA800152D0800410127088039B1002735B800F3
:101CB800A61F5F2E602E612E381438080319652E72
:101CC800662E762E380A031D6A2E6B2E732E003070
:101CD800A7000030A6000030A5000030A400A61719
:101CE800A7017E2E0030A7000030A6000030A50016
:101CF8000030A40023088039A8002808B10623353D
:101D0800B900A21F882E892E8A2E39143908031982
:101D18008E2E8F2E9F2E390A031D932E942E9C2EC5
:101D28000030A3000030A2000030A1000030A00065
:101D3800A217A301A72E0030A3000030A200003094
:101D4800A1000030A0002308220421042004031D60
:101D5800AE2EAF2EC82E0030A7000030A6000030EF
:101D6800A5000030A4008030A6047F30A704310805
:101D7800A8002808A7042708A3002608A200250809
:101D8800A1002408A000FF2F3808031DCC2ECD2E5B
:101D9800D62E0030A3000030A2000030A100003091
:101DA800A000FF2F3808A800A9012908AB003908AE
:101DB8002802AA00031CAB032A087F3EB2000030A9
:101DC8002B3DB3002708B0002608AF002508AE0059
:101DD8002408AD000030A7000030A6000030A500A0
:101DE8000030A4000030B7000030B6000030B50065
:101DF8000030B400B9013E2F39080319042F052F0C
:101E08001F2F0130AD35AE0DAF0DB00D890B062F6C
:101E18000130A435A50DA60DA70D890B0D2FB71FF1
:101E2800162F172F182F24140130B435B50DB60D01
:101E3800B70D890B192F23083002031D2D2F2208F7
:101E48002F02031D2D2F21082E02031D2D2F2008E0
:101E58002D02031C302F312F3A2F37172008AD02DF
:101E68002108AE3B2208AF3B2308B03B0130A80055
:101E78002808B9071A303902031C432F442F002FB2
:101E880030082F042E042D0403194B2F4C2F652FD7
:101E98003414652F0130A435A50DA60DA70D890BA7
:101EA8004F2FB71F582F592F5A2F24140130B435EC
:101EB800B50DB60DB70D890B5B2FFF30B207FF309C
:101EC800B33DA61F682F692F4E2FB901B71F6D2F7D
:101ED8006E2F8A2FFF303405A800FF303505A90082
:101EE800FF303605AA007F303705AB002B082A04DF
:101EF800290428040319812F822F852FB901B90AD3
:101F08008A2F241C882F892F8A2F822F390803199A
:101F18008E2F8F2FB72F0130A4070030A53D00303A
:101F2800A63D0030A73D271C9A2F9B2FB72F2408CA
:101F3800A8002508A9002608AA002708AB00013038
:101F4800AC00AB37AA0CA90CA80CAC0BA52F2B081E
:101F5800A7002A08A6002908A5002808A40001301F
:101F6800B2070030B33D3308803AA8008030280219
:101F7800031DC02FFF303202031CC32FC42FD12FE3
:101F8800FF304101B2000030B3000030A70000303C
:101F9800A6000030A5000030A40041013308803AB3
:101FA800A80080302802031DDB2F013032020318FD
:101FB800DE2FDF2FEB2F4101B201B3010030A70064
:101FC8000030A6000030A5000030A400B101410196
:101FD8003208B800381CF12FF22FF42FA617F82F6B
:101FE8007F30A8002808A6053836A7003108A800C1
:081FF8002808A704BF2E080011
:1020F80040018C150C158C14080040018C110C1132
:102108008C100800640080010131890B8728003495
:1021180041019A01033098009D01853093009E018A
:1021280008004E010C1009307D0190000B144E017F
:10213800161008004E010C127E014A124E011616A6
:102148007E01491648160800013045019000D0303C
:102158008E00F9308C004E0190109A14080001305E
:10216800450196004B309400FF3092004E019011CB
:102178009A1508004001DF01E0010130DD00003060
:10218800DE008C150C118C140800903040019E0064
:1021980046309F0048309D00E4309C004E018C1270
:1021A80096160800013044019700323094000B3035
:1021B8009300DC3092004E0110111A15080001300E
:1021C80044019D0032309A000B309900DC309800B1
:1021D8004E0110121A160800F201F20A023091316B
:1021E8003F2190310B30F2009830F3009131EA2111
:1021F80090310800F201F20A013091313F2190310B
:102208000B30F2009830F3009131EA219031080048
:102218004101A201A20A01309131672191310B30AD
:102228004101A2009830A30092310922913108009F
:10223800F81B1F29202921292C297709F900780959
:10224800FA00F90A0319FA0A7908F7007A08F80077
:10225800080001307E01B800C301CE01D901E401B4
:10226800C13040019100F730920093010F30940083
:10227800FC3095000800F3007303031D4429452929
:1022880049297208FF3EF4004C2972083F3EF400C9
:10229800F0017408803E9231B62291310800003274
:1022A80041011314131859295A2956290D08F10008
:1022B8000C08F000F035F10DF035F10D7008D8007C
:1022C8007108D90008004101A3002303031D6D29EB
:1022D8006E2972292208FF3EA400752922083F3E74
:1022E800A400A0012408803E9231DC22913108002C
:1022F8003E304001C200CC30C100CC30C000CD30EF
:10230800BF009631C02691313E304001C200CC302A
:10231800C100CC30C000CD30BF009431432491318E
:1023280008004001B5003208B7003108B600A429FA
:102338003630FC003308FD00350887310727913116
:10234800400136088400370885001200031DAD29B6
:10235800AE299C29B101B20108004101A301A401E1
:10236800BE29C8300032890BB62901304101A307C4
:102378000030A43D2408803AA2002108803A2202B5
:10238800031DC82920082302031CCB29CC29B52901
:1023980008004001BE003A30BD003E08BF00C10140
:1023A800C201C801C9013908B2003808B1003D307E
:1023B800B3003F30913195219131400141083E07EA
:1023C800BC003C088600870181010800F501F60180
:1023D800FD29F001F00A7208750784007308763D3C
:1023E800850000089231B62291310130F50700309E
:1023F800F63D7208750784007308763D8500120063
:10240800031D072A082AED2908004101A501A60194
:102418001E2AA001A00A2208250784002308263DB9
:10242800850000089231DC22923101304101A50774
:102438000030A63D2208250784002308263D850094
:102448001200031D282A292A0D2A080040018C168B
:102458000C160A3084009830850000088E008C160F
:102468000C120A3084009830850000088E008C1207
:102478000C160A3084009830850000088E008C12F3
:102488000C120A3084009830850000088E0008007D
:102498000B30F200023091313F2192314001520855
:1024A800CD005108CC005008CB004F08CA0072304C
:1024B800B8009830B9006A08BB006908BA004A3009
:1024C8009131CD2192314A30F2000030F300913140
:1024D800EA2192310800F800F401F5017008F200D1
:1024E800F3017208F6007308F700781C7C2A7D2A2D
:1024F800812A7608F4077708F53D0130F635F70D9F
:10250800890B822A0310F80C7808031D8C2A8D2A5F
:10251800792A7508F1007408F00008004101A80044
:10252800A401A5012008A200A3012208A6002308EF
:10253800A700281CA02AA12AA52A2608A40727083C
:10254800A53D0130A635A70D890BA62A0310A80CB6
:102558002808031DB02AB12A9D2A2508A1002408AD
:10256800A0000800F100700C4001031C9010031833
:10257800901471088F001014C8300032890BC12ADA
:1025880040011010C8300032890BC72AF10EF03014
:10259800F105710840018F001014C8300032890B12
:1025A800D22A40011010C8300032890BD82A0800FE
:1025B8004101A100200C4001031C90100318901445
:1025C8004101210840018F001014C8300032890BE6
:1025D800EA2A40011010C8300032890BF02A410164
:1025E800A10EF030A105210840018F001014C83059
:1025F8000032890BFC2A40011010C8300032890BC8
:10260800022B080003304101A200013091316721FB
:10261800933165304101A2009830A300923109221C
:102628009331440114149031BE2093311E2B8A310A
:10263800FA2293310A30400159065A04031D252B0A
:10264800262B1B2B44011A10903181209331450110
:1026580094134101931740019E17DD01DE014E01DD
:102668001610080040018C150C118C104101260829
:10267800A1002508A0009131B121933140018C11AE
:102688000C158C1041012608A1002508A0009131E5
:10269800B121933140018C110C118C144101260891
:1026A800A1002508A0009131B121933140018C117E
:1026B8000C158C1041012608A1002508A0009131B5
:1026C800B1219331080040019E134E0116144101B7
:1026D80093130330A20001309131672193315830B0
:1026E8004101A2009830A300923109229331873129
:1026F800F527933145019417842B8B31A32393310C
:1027080041015908803AD6008B305602031D8E2BA2
:10271800B93058020318912B922B812B4001DF010D
:10272800E001933106239331080014304101A200DF
:102738007930890B9D2BA20B9D2B00324101A00102
:1027480003309231DC22933107304101A2007D3001
:10275800890BAC2BA20BAC2B4101A00102309231AA
:10276800DC2293314101A00128309231DC229331DF
:102778004101A0010C309231DC2293314101A001CA
:1027880006309231DC2293314101A00101309231AF
:10279800DC229331080001304401910033308E006F
:1027A80024308D0046308C004E0110101A14400160
:1027B8000D1EDF2BE02BF02B4101A201A20A0230F3
:1027C8009131672193311C304101A2009830A30058
:1027D800923109229331052C0D1AF32BF42B052C79
:1027E80044010E1002304101A200023091316721EC
:1027F80093313C304101A2009830A3009231092264
:10280800933108003E304001C2009930C100993030
:10281800C0009A30BF009531002594313D30400109
:10282800C200CC30C100CC30C000CD30BF009431E4
:10283800432494313E304001C200CC30C100CC303A
:10284800C000CD30BF009631C02694313D304001E4
:10285800C200CC30C100CC30C000CD30BF009431B4
:10286800432494313E304001C2009930C100993070
:10287800C0009A30BF00953100259431080040010E
:102888004208A7004108A6004008A5003F08A40088
:102898004930A3007430A2002430A1000030A00009
:1028A8008431CC24943140012308B8002208B700B1
:1028B8002108B6002008B5008A3118229431400159
:1028C8003608C5003508C4008D11C601C701722C31
:1028D800000001304001C6070030C73D4708803A74
:1028E800C3004508803A4302031D7C2C4408460275
:1028F800031C7F2C802C6C2C080091312D219431E5
:102908009331992394318B130B1390319520943183
:1029180090319E20943190318C2094319031C9208F
:1029280094319331CF2394319031A8209431903150
:10293800D62094319031B32094319031E3209431F2
:102948008B170B179031812094318931A92194314B
:1029580041015908803AD7008D305702031DB62C23
:10296800AC305802031CB92CBA2CA92C933167231C
:102978009431A92C8231782A41015008B0004F08BF
:10298800AF004E08AE004D08AD004930AC007430C1
:10299800AB002430AA000030A90082319122943182
:1029A80041012C08C6002B08C5002A08C4002908C4
:1029B800C3008A318922943141014408D300430875
:1029C800D20040018D114101D401D501F12C000044
:1029D80001304101D4070030D53D5508803AD10077
:1029E8005308803A5102031DFB2C52085402031C61
:1029F800FE2CFF2CEB2C080040014208F700410890
:102A0800F6004008F5003F08F4003B30F3000330BF
:102A1800F2001230F1006F30F0008C31AC249531A7
:102A280073084001B8007208B7007108B600700852
:102A3800B5008A311822953140013608C50035089D
:102A4800C400C601C701392D40018D15C8300032B8
:102A5800890B2B2D40018D11C8300032890B312D87
:102A680001304001C6070030C73D4708803AC3001F
:102A78004508803A4302031D432D44084602031CBF
:102A8800462D472D282D080041015008A7004F0862
:102A9800A6004E08A5004D08A4003B30A30009304D
:102AA800A200A030A1002730A0008E315626953113
:102AB80041012308C6002208C5002108C4002008D7
:102AC800C3008A318922953141014408D300430863
:102AD800D200D401D501812D40018D15D2300032AC
:102AE800890B732D40018D11D2300032890B792D5D
:102AF80001304101D4070030D53D5508803AD10056
:102B08005308803A5102031D8B2D52085402031CAE
:102B18008E2D8F2D702D080041015008A7004F08F9
:102B2800A6004E08A5004D08A4003B30A3000330C2
:102B3800A2001230A1006F30A0008E3156269531C8
:102B480041012308C6002208C5002108C400200846
:102B5800C3008A318922953141014408D3004308D2
:102B6800D200D401D501C92D40018D15C8300032DD
:102B7800890BBB2D40018D11C8300032890BC12D46
:102B880001304101D4070030D53D5508803AD100C5
:102B98005308803A5102031DD32D52085402031CD6
:102BA800D62DD72DB82D080041015008A7004F0891
:102BB800A6004E08A5004D08A4003B30A3004430F1
:102BC800A2009B30A100A630A0008E315626953178
:102BD80041012308C6002208C5002108C4002008B6
:102BE800C3008A318922953141014408D300430842
:102BF800D200D401D501152E40018D15D6300032F2
:102C08000032890B032E003240018D11D63000327C
:102C18000032890B0B2E003201304101D4070030FD
:102C2800D53D5508803AD1005308803A5102031D1A
:102C38001F2E52085402031C222E232E002E080099
:102C480041015008A7004F08A6004E08A5004D08EE
:102C5800A4003B30A3003E30A2000D30A100ED30AF
:102C6800A0008E315626963141012308C60022085D
:102C7800C5002108C4002008C3008A318922963182
:102C880041014408D3004308D200D401D501612E84
:102C980040018D15CF3000320032890B4F2E0000D5
:102CA80040018D11CF3000320032890B572E0000C1
:102CB80001304101D4070030D53D5508803AD10094
:102CC8005308803A5102031D6B2E52085402031C0C
:102CD8006E2E6F2E4C2E080072080319742E752E56
:102CE8007A2E7208031D792E7A2E7F2E7008803175
:102CF80003209631BF2E7208093E86008701160010
:102D080001040319882E892EA72E7208093E860011
:102D18008701403FF300413FF4007208023E8600FD
:102D28008701403FF500413FF6007608803AF700FA
:102D38007408803A7702031DA32E730875020318DE
:102D4800A62EA72EBF2E7208860087017208023EA3
:102D58008400850100080107F300730886008701D5
:102D6800700881007208023E8600870101308107E1
:102D780041310318810A080040014208F700410860
:102D8800F6004008F5003F08F4003B30F30030300F
:102D9800F200F230F1007C30F0008C31AC24963136
:102DA80073084001B8007208B7007108B6007008CF
:102DB800B5008A311822963140013608C500350819
:102DC800C400C601C701012F40018D15C030003273
:102DD8000032890BEB2E00320032003240018D1197
:102DE800C03000320032890BF52E0032003200323A
:102DF80001304001C6070030C73D4708803AC3008C
:102E08004508803A4302031D0B2F44084602031C61
:102E18000E2F0F2FE82E080041015008A7004F0879
:102E2800A6004E08A5004D08A4003B30A300303092
:102E3800A200F230A1007C30A0008E3156269731D6
:102E480041012308C6002208C5002108C400200843
:102E5800C3008A318922973141014408D3004308CD
:102E6800D200D401D501512F40018D15C030003258
:102E78000032890B3B2F00320032003240018D11A5
:102E8800C03000320032890B452F00320032003248
:102E980001304101D4070030D53D5508803AD100B2
:102EA8005308803A5102031D5B2F52085402031C39
:102EB8005E2F5F2F382F080041015008A7004F08E8
:102EC800A6004E08A5004D08A4003B30A3002A30F8
:102ED800A2006430A100C330A0008E31562697317D
:102EE80041012308C6002208C5002108C4002008A3
:102EF800C3008A318922973141014408D30043082D
:102F0800D200D401D501A12F40018D15B93000326E
:102F18000032890B8B2F00320032000040018D11E6
:102F2800B93000320032890B952F00320032000090
:102F380001304101D4070030D53D5508803AD10011
:102F48005308803A5102031DAB2F52085402031C48
:102F5800AE2FAF2F882F080041015008A7004F0857
:102F6800A6004E08A5004D08A4003B30A3007F3002
:102F7800A2009730A1002430A0008E315626973148
:102F880041012308C6002208C5002108C400200802
:102F9800C3008A318922973141014408D30043088C
:102FA800D200D401D501F12F40018D150330410124
:102FB800D1008730890BDE2FD10BDE2F40018D1118
:102FC80003304101D1008730890BE82FD10BE82F5E
:102FD80001304101D4070030D53D5508803AD10071
:102FE8005308803A5102031DFB2F52085402031C58
:102FF800FE2FFF2FD82F0800C034F934A434B03482
:10300800993492348234F83480349034FF34203444
:103018002034203420342034203420342034203408
:103028002034203420342034203420342034003418
:103038005334703464343A34203420345034773480
:1030480072343A3420342034203420346B345734EA
:10305800003445344D3445345234473445344E34C5
:10306800433459342034533454344F3450340034B6
:1030780050346F34773465347234203447346534CF
:103088006E343A3420344F344634463400345B349A
:10309800203448347934643472346F3444346134BD
:1030A8006D3420345D34003447344134543445346D
:1030B80020344F34503445344E3449344E34473438
:1030C80000344734413454344534203443344C3488
:1030D8004F34533449344E3447340034253464343F
:0A30E80000342B3400342D34003482
:020000040001F9
:08000000FF3FFF3FFF3FFF3F00
:0A000E00F93FFF3F9F3FFF1FFF3F38
:00000001FF
